{
  "contractName": "CertificateContract",
  "abi": [
    {
      "anonymous": false,
      "inputs": [
        {
          "indexed": true,
          "internalType": "address",
          "name": "issuedBy",
          "type": "address"
        },
        {
          "indexed": true,
          "internalType": "address",
          "name": "issuedTo",
          "type": "address"
        },
        {
          "indexed": true,
          "internalType": "string",
          "name": "id",
          "type": "string"
        },
        {
          "components": [
            {
              "internalType": "string",
              "name": "id",
              "type": "string"
            },
            {
              "internalType": "string",
              "name": "createdAt",
              "type": "string"
            },
            {
              "internalType": "string",
              "name": "expireAt",
              "type": "string"
            },
            {
              "internalType": "address",
              "name": "issuedBy",
              "type": "address"
            },
            {
              "internalType": "address",
              "name": "issuedTo",
              "type": "address"
            },
            {
              "internalType": "string",
              "name": "data",
              "type": "string"
            }
          ],
          "indexed": false,
          "internalType": "struct CertificateContract.Certificate",
          "name": "certificate",
          "type": "tuple"
        }
      ],
      "name": "CertificateWrite",
      "type": "event"
    },
    {
      "inputs": [
        {
          "internalType": "string",
          "name": "",
          "type": "string"
        }
      ],
      "name": "certificates",
      "outputs": [
        {
          "internalType": "string",
          "name": "id",
          "type": "string"
        },
        {
          "internalType": "string",
          "name": "createdAt",
          "type": "string"
        },
        {
          "internalType": "string",
          "name": "expireAt",
          "type": "string"
        },
        {
          "internalType": "address",
          "name": "issuedBy",
          "type": "address"
        },
        {
          "internalType": "address",
          "name": "issuedTo",
          "type": "address"
        },
        {
          "internalType": "string",
          "name": "data",
          "type": "string"
        }
      ],
      "stateMutability": "view",
      "type": "function",
      "constant": true
    },
    {
      "inputs": [
        {
          "internalType": "string",
          "name": "id",
          "type": "string"
        },
        {
          "internalType": "string",
          "name": "data",
          "type": "string"
        },
        {
          "internalType": "address",
          "name": "issuedTo",
          "type": "address"
        },
        {
          "internalType": "string",
          "name": "expireAt",
          "type": "string"
        },
        {
          "internalType": "string",
          "name": "createdAt",
          "type": "string"
        }
      ],
      "name": "create",
      "outputs": [],
      "stateMutability": "nonpayable",
      "type": "function"
    }
  ],
  "bytecode": "0x608060405234801561001057600080fd5b50610e48806100206000396000f3fe608060405234801561001057600080fd5b50600436106100365760003560e01c80638f2b91ea1461003b578063b23f758d14610070575b600080fd5b61005560048036038101906100509190610721565b61008c565b6040516100679695949392919061082a565b60405180910390f35b61008a600480360381019061008591906108d3565b61033e565b005b6000818051602081018201805184825260208301602085012081835280955050505050506000915090508060000180546100c5906109ed565b80601f01602080910402602001604051908101604052809291908181526020018280546100f1906109ed565b801561013e5780601f106101135761010080835404028352916020019161013e565b820191906000526020600020905b81548152906001019060200180831161012157829003601f168201915b505050505090806001018054610153906109ed565b80601f016020809104026020016040519081016040528092919081815260200182805461017f906109ed565b80156101cc5780601f106101a1576101008083540402835291602001916101cc565b820191906000526020600020905b8154815290600101906020018083116101af57829003601f168201915b5050505050908060020180546101e1906109ed565b80601f016020809104026020016040519081016040528092919081815260200182805461020d906109ed565b801561025a5780601f1061022f5761010080835404028352916020019161025a565b820191906000526020600020905b81548152906001019060200180831161023d57829003601f168201915b5050505050908060030160009054906101000a900473ffffffffffffffffffffffffffffffffffffffff16908060040160009054906101000a900473ffffffffffffffffffffffffffffffffffffffff16908060050180546102bb906109ed565b80601f01602080910402602001604051908101604052809291908181526020018280546102e7906109ed565b80156103345780601f1061030957610100808354040283529160200191610334565b820191906000526020600020905b81548152906001019060200180831161031757829003601f168201915b5050505050905086565b610346610565565b81816020018190525082816040018190525083816080019073ffffffffffffffffffffffffffffffffffffffff16908173ffffffffffffffffffffffffffffffffffffffff168152505033816060019073ffffffffffffffffffffffffffffffffffffffff16908173ffffffffffffffffffffffffffffffffffffffff1681525050848160a00181905250858160000181905250806000876040516103eb9190610a5a565b9081526020016040518091039020600082015181600001908161040e9190610c27565b5060208201518160010190816104249190610c27565b50604082015181600201908161043a9190610c27565b5060608201518160030160006101000a81548173ffffffffffffffffffffffffffffffffffffffff021916908373ffffffffffffffffffffffffffffffffffffffff16021790555060808201518160040160006101000a81548173ffffffffffffffffffffffffffffffffffffffff021916908373ffffffffffffffffffffffffffffffffffffffff16021790555060a08201518160050190816104de9190610c27565b50905050856040516104f09190610a5a565b60405180910390208473ffffffffffffffffffffffffffffffffffffffff163373ffffffffffffffffffffffffffffffffffffffff167f48f5e2c3bae9ca4c03e0dc32b62bbe7784b9862c94f1e881a17f7d3c5723cf2a846040516105559190610df0565b60405180910390a4505050505050565b6040518060c00160405280606081526020016060815260200160608152602001600073ffffffffffffffffffffffffffffffffffffffff168152602001600073ffffffffffffffffffffffffffffffffffffffff168152602001606081525090565b6000604051905090565b600080fd5b600080fd5b600080fd5b600080fd5b6000601f19601f8301169050919050565b7f4e487b7100000000000000000000000000000000000000000000000000000000600052604160045260246000fd5b61062e826105e5565b810181811067ffffffffffffffff8211171561064d5761064c6105f6565b5b80604052505050565b60006106606105c7565b905061066c8282610625565b919050565b600067ffffffffffffffff82111561068c5761068b6105f6565b5b610695826105e5565b9050602081019050919050565b82818337600083830152505050565b60006106c46106bf84610671565b610656565b9050828152602081018484840111156106e0576106df6105e0565b5b6106eb8482856106a2565b509392505050565b600082601f830112610708576107076105db565b5b81356107188482602086016106b1565b91505092915050565b600060208284031215610737576107366105d1565b5b600082013567ffffffffffffffff811115610755576107546105d6565b5b610761848285016106f3565b91505092915050565b600081519050919050565b600082825260208201905092915050565b60005b838110156107a4578082015181840152602081019050610789565b60008484015250505050565b60006107bb8261076a565b6107c58185610775565b93506107d5818560208601610786565b6107de816105e5565b840191505092915050565b600073ffffffffffffffffffffffffffffffffffffffff82169050919050565b6000610814826107e9565b9050919050565b61082481610809565b82525050565b600060c082019050818103600083015261084481896107b0565b9050818103602083015261085881886107b0565b9050818103604083015261086c81876107b0565b905061087b606083018661081b565b610888608083018561081b565b81810360a083015261089a81846107b0565b9050979650505050505050565b6108b081610809565b81146108bb57600080fd5b50565b6000813590506108cd816108a7565b92915050565b600080600080600060a086880312156108ef576108ee6105d1565b5b600086013567ffffffffffffffff81111561090d5761090c6105d6565b5b610919888289016106f3565b955050602086013567ffffffffffffffff81111561093a576109396105d6565b5b610946888289016106f3565b9450506040610957888289016108be565b935050606086013567ffffffffffffffff811115610978576109776105d6565b5b610984888289016106f3565b925050608086013567ffffffffffffffff8111156109a5576109a46105d6565b5b6109b1888289016106f3565b9150509295509295909350565b7f4e487b7100000000000000000000000000000000000000000000000000000000600052602260045260246000fd5b60006002820490506001821680610a0557607f821691505b602082108103610a1857610a176109be565b5b50919050565b600081905092915050565b6000610a348261076a565b610a3e8185610a1e565b9350610a4e818560208601610786565b80840191505092915050565b6000610a668284610a29565b915081905092915050565b60008190508160005260206000209050919050565b60006020601f8301049050919050565b600082821b905092915050565b600060088302610ad37fffffffffffffffffffffffffffffffffffffffffffffffffffffffffffffffff82610a96565b610add8683610a96565b95508019841693508086168417925050509392505050565b6000819050919050565b6000819050919050565b6000610b24610b1f610b1a84610af5565b610aff565b610af5565b9050919050565b6000819050919050565b610b3e83610b09565b610b52610b4a82610b2b565b848454610aa3565b825550505050565b600090565b610b67610b5a565b610b72818484610b35565b505050565b5b81811015610b9657610b8b600082610b5f565b600181019050610b78565b5050565b601f821115610bdb57610bac81610a71565b610bb584610a86565b81016020851015610bc4578190505b610bd8610bd085610a86565b830182610b77565b50505b505050565b600082821c905092915050565b6000610bfe60001984600802610be0565b1980831691505092915050565b6000610c178383610bed565b9150826002028217905092915050565b610c308261076a565b67ffffffffffffffff811115610c4957610c486105f6565b5b610c5382546109ed565b610c5e828285610b9a565b600060209050601f831160018114610c915760008415610c7f578287015190505b610c898582610c0b565b865550610cf1565b601f198416610c9f86610a71565b60005b82811015610cc757848901518255600182019150602085019450602081019050610ca2565b86831015610ce45784890151610ce0601f891682610bed565b8355505b6001600288020188555050505b505050505050565b600082825260208201905092915050565b6000610d158261076a565b610d1f8185610cf9565b9350610d2f818560208601610786565b610d38816105e5565b840191505092915050565b610d4c81610809565b82525050565b600060c0830160008301518482036000860152610d6f8282610d0a565b91505060208301518482036020860152610d898282610d0a565b91505060408301518482036040860152610da38282610d0a565b9150506060830151610db86060860182610d43565b506080830151610dcb6080860182610d43565b5060a083015184820360a0860152610de38282610d0a565b9150508091505092915050565b60006020820190508181036000830152610e0a8184610d52565b90509291505056fea26469706673582212209b26e984fbe1f2273890b953343ef5b6dc32fa5f82cdf8445290de387aea90fa64736f6c63430008110033",
  "immutableReferences": {},
  "source": "// SPDX-License-Identifier: GPL-3.0\r\n\r\npragma solidity >=0.7.0 <0.9.0;\r\n\r\n/** \r\n * @title Certificate Contract\r\n * @dev Implements Certificate Generation\r\n */\r\ncontract CertificateContract {\r\n\r\n    event CertificateWrite(address indexed issuedBy, address indexed issuedTo, string indexed id, Certificate certificate);\r\n\r\n    struct Certificate {\r\n        string id;\r\n        string createdAt;\r\n        string expireAt;\r\n        address issuedBy;\r\n        address issuedTo;\r\n        string data;\r\n    }\r\n\r\n    mapping(string => Certificate) public certificates;\r\n\r\n    function create(string memory id, string memory data, address issuedTo, string memory expireAt, string memory createdAt) public {\r\n        Certificate memory c;\r\n        c.createdAt = createdAt;\r\n        c.expireAt = expireAt;\r\n        c.issuedTo = issuedTo;\r\n        c.issuedBy = msg.sender;\r\n        c.data = data;\r\n        c.id = id;\r\n        certificates[id] = c;\r\n        emit CertificateWrite(msg.sender, issuedTo, id, c);\r\n    }\r\n}",
  "sourcePath": "E:\\Personal Projects\\blockchain\\certifier-dapp\\contracts\\1_CertificateContract.sol",
  "compiler": {
    "name": "solc",
    "version": "0.8.17+commit.8df45f5f.Emscripten.clang"
  },
  "schemaVersion": "3.4.10",
  "updatedAt": "2022-11-11T16:53:06.318Z",
  "networkType": "ethereum",
  "devdoc": {
    "details": "Implements Certificate Generation",
    "kind": "dev",
    "methods": {},
    "title": "Certificate Contract",
    "version": 1
  },
  "userdoc": {
    "kind": "user",
    "methods": {},
    "version": 1
  }
}